:100000000C9463000C948B000C948B000C948B006C
:100010000C948B000C948B000C948B000C948B0034
:100020000C948B000C948B000C948B000C948B0024
:100030000C948B000C948B000C948B000C948B0014
:100040000C9475030C948B000C948B000C948B0017
:100050000C948B000C948B000C948B000C948B00F4
:100060000C94BF030C948B000000000024002700B8
:100070002A0000000000250028002B0000000000DE
:1000800023002600290004040404040404040202DA
:100090000202020203030303030301020408102007
:1000A0004080010204081020010204081020000012
:1000B0000008000201000003040700000000000027
:1000C00000008F0C0B0A11241FBECFEFD8E0DEBF5B
:1000D000CDBF11E0A0E0B1E0E0E2FDE102C005909B
:1000E0000D92AC31B107D9F724E0ACE1B1E001C029
:1000F0001D92A033B207E1F710E0C2E6D0E004C0E1
:100100002197FE010E943C0DC136D107C9F70E941C
:10011000270A0C94830E0C940000CF93DF9390E099
:10012000FC01E656FF4F2491FC01EA57FF4F8491F2
:10013000882361F190E0880F991FFC01E859FF4F77
:10014000C591D491FC01EE58FF4FA591B491611176
:1001500009C09FB7F8948881209582238883EC9109
:100160002E230BC0623061F49FB7F8948881322F40
:10017000309583238883EC912E2B2C939FBF06C050
:100180008FB7F894E8812E2B28838FBFDF91CF9112
:100190000895E091A301F091A401309729F0109205
:1001A000AF011092AE0109940895CF93DF93AC0193
:1001B000E091A501F091A6013097F1F09091B10185
:1001C0008091B0019817C0F090E0292F30E02617F9
:1001D000370754F4D901A45EBE4FEA01C20FD31F02
:1001E00028812C939F5FF1CF1092B1016093B001F1
:1001F000CB01DF91CF910994DF91CF910895CF92F8
:10020000DF92EF92FF920F931F93CF93DF936C01D6
:100210007A018B01C0E0D0E0CE15DF0581F0D80176
:100220006D918D01D601ED91FC910190F081E02D51
:10023000C6010995892B11F02196EECF7E01C701E9
:10024000DF91CF911F910F91FF90EF90DF90CF90B2
:10025000089585ED8093BC008091BC0084FDFCCFA7
:100260001092AD01089540915C01262F30E0240FDB
:10027000311D21323105DCF42091AD012430C9F467
:10028000FC0180E090E0861758F430915C012191E8
:10029000DC01A45CBE4FA30FB11D2C930196F3CFDC
:1002A00080915C01680F60935C0180E0089581E0BB
:1002B000089582E008950895E091B1018091B00120
:1002C000E81730F4F0E0E45EFE4F808190E008959E
:1002D0008FEF9FEF08959091B1018091B001981731
:1002E00050F4E92FF0E0E45EFE4F208130E09F5FA4
:1002F0009093B10102C02FEF3FEFC90108958091A3
:10030000B00190E02091B101821B91090895CF9333
:10031000DF93CB01EA01642F0E943301CE01DF910C
:10032000CF910895CF93DF931F92CDB7DEB7698346
:1003300061E0CE0101960E94330181E090E00F90D0
:10034000DF91CF910895EBE0F2E04181642F660FD9
:10035000928124E0929FA0011124462B6081642B9E
:10036000938188E0989F90011124622B948120E171
:10037000929FC0011124682B80E192E00C949201BD
:10038000089580E090E008957F928F929F92AF92BF
:10039000BF92CF92DF92EF92FF920F931F93CF9372
:1003A000DF93FC014A01AA24BB24782CC32ED42E4F
:1003B000E52EFF24BC2DA22F8085882361F0889E26
:1003C00040011124792C8C9D60011124BD2D829F48
:1003D00070011124AF2D9685D385E184F2849D139D
:1003E00008C0CB01880F991F680F791F6E0D7F1D04
:1003F0001CC0660F771F660F771F6E0D7F1D052FC0
:100400001127222733277B01E90EF11C811102C03D
:10041000202F09C090E0809F6001819FD00C909FA9
:10042000D00C11242D2DE701288383859B01280FF3
:10043000311DE90178828485EB01C80FD11DB88395
:100440008585FB01E80FF11DA083DF91CF911F91FE
:100450000F91FF90EF90DF90CF90BF90AF909F9063
:100460008F907F9008954F925F926F927F928F92BC
:100470009F92AF92BF92CF92DF92EF92FF920F9333
:100480001F93CF93DF93EC018B89481306C08C89AF
:10049000581303C08D89681729F0898D8823C9F105
:1004A00084E388874B8B5C8B6D8B452E512C612CA4
:1004B000712C762C652C542C4424642A462A888579
:1004C00085330CF079C08FB7F8948090B301909089
:1004D000B401A090B501B090B6018FBF9401A50101
:1004E00060E070E080E090E0A880B980CA80DB80A6
:1004F000EC80FD800E811F810E94270D2D3431403C
:1005000041055105610571058105910509F018F452
:1005100053C01886C7CF0885E02F002E000CFF0BB4
:100520002B853C854D855E856F85788989899A897B
:100530000E940B0D217030E040E050E060E070E080
:1005400080E090E0A0E00E94300D11F189859A854D
:10055000DC0112962D913C911397E217F30728F4D2
:10056000A3019201BF010E94C4018FB7F8940091CA
:10057000B3011091B4012091B5013091B6018FBF44
:10058000088319832A833B831C821D821E821F825B
:10059000998D8885992311F0815001C08F5F8887DC
:1005A0008885853311F087FF8ACF8B899C89AD8937
:1005B0008E8B9F8BA88F83CFDF91CF911F910F914F
:1005C000FF90EF90DF90CF90BF90AF909F908F9073
:1005D0007F906F905F904F9008950E94630E8031DE
:1005E000910549F178F48230910509F120F40197E1
:1005F00071F58CE027C084309105D9F0089739F562
:1006000088E020C080389105D1F040F48032910517
:10061000A1F080349105D9F48FE014C0811521E058
:10062000920779F08115924091F48DE00BC08BE038
:1006300009C089E007C087E005C08EE003C080E103
:1006400001C081E10E94FD0621E0892B09F020E034
:10065000822F0895CF93DF931F92CDB7DEB780919D
:10066000BB01811119C08091B00190E02091B101CE
:10067000821B9109181619067CF480E192E00E9411
:100680006B01898341E050E0BE016F5F7F4F8BEBD0
:1006900091E00E94730EE7CF0F90DF91CF91089504
:1006A0003FB7F8948091B7019091B801A091B9013A
:1006B000B091BA0126B5A89B05C02F3F19F001964D
:1006C000A11DB11D3FBFBA2FA92F982F8827820FD8
:1006D000911DA11DB11DBC01CD0142E0660F771F28
:1006E000881F991F4A95D1F708951F920F920FB650
:1006F0000F9211242F933F938F939F93AF93BF93A8
:100700008091B3019091B401A091B501B091B6016F
:100710003091B20123E0230F2D3720F40196A11D63
:10072000B11D05C026E8230F0296A11DB11D20931F
:10073000B2018093B3019093B401A093B501B0933B
:10074000B6018091B7019091B801A091B901B09123
:10075000BA010196A11DB11D8093B7019093B80114
:10076000A093B901B093BA01BF91AF919F918F91BE
:100770003F912F910F900FBE0F901F9018951F92D1
:100780000F920FB60F9211242F933F934F935F93C5
:100790006F937F938F939F93AF93BF93EF93FF9349
:1007A0008091B900887F803609F49CC068F5883252
:1007B00009F45BC090F4803109F454C038F4882304
:1007C00009F4F6C0883009F44DC0F6C0883109F448
:1007D0004CC0803209F45DC0EFC0803409F468C0B9
:1007E00048F4803309F455C0883309F0E5C080939C
:1007F0007F01D8C0803509F44FC0883509F45DC049
:10080000883409F0D9C0D6C0883909F4C7C0A8F423
:10081000883709F467C038F4883609F463C0803734
:1008200009F460C0C9C0883809F4B8C0803909F437
:100830005FC0803809F0C0C05BC0803B09F486C04F
:1008400038F4803A09F466C0883A09F47FC0B4C02D
:10085000803C09F4A7C0883C09F4A4C0883B09F493
:100860008AC0AAC08091A20110C09091A10180917C
:10087000A001981770F5E091A10181E08E0F80939F
:10088000A101F0E0E058FE4F80818093BB0085EC31
:1008900086C080937F018EC0E091A10181E08E0F20
:1008A0008093A1018091BB00F0E0E058FE4F80836F
:1008B0009091A1018091A0016EC0E091A10181E021
:1008C0008E0F8093A1018091BB00F0E0E058FE4FB5
:1008D00080838091AC0181116DC081E08093AB0178
:1008E00084EA61C083E08093AD0110927E01CFCF96
:1008F00080917E01803208F051C0E0917E0181E05C
:100900008E0F80937E018091BB00F0E0E25AFE4F93
:100910008083BDCF85EC8093BC001092AD018091A7
:100920007E01803230F4E0917E01F0E0E25AFE4F29
:10093000108260917E0170E0E091A701F091A80122
:100940008EE591E0099510927E0136C084E0809397
:10095000AD0110925D0110925C01E091A901F0914E
:10096000AA01099580915C01811105C081E0809305
:100970005C0110923C01E0915D0181E08E0F80935B
:100980005D01F0E0E45CFE4F80818093BB009091BC
:100990005D0180915C01981708F479CF85E8809318
:1009A000BC000AC085EC8093BC001092AD0104C06D
:1009B00010927F010E942901FF91EF91BF91AF91A9
:1009C0009F918F917F916F915F914F913F912F9167
:1009D0000F900FBE0F901F901895EF92FF920F93FC
:1009E0001F93CF93DF938C01C0E0D0E0EE24E3941B
:1009F000F12CF8018481958197010C2E02C0220F01
:100A0000331F0A94E2F782239323009709F484C0EA
:100A10008031910509F449C068F48230910551F1A3
:100A200018F40197F1F078C08430910561F10897CE
:100A300099F172C08038910509F452C040F48032B7
:100A40009105E1F18034910509F441C065C081153B
:100A500021E0920709F44DC08115924009F452C07B
:100A60005BC08CE00E94FD0661E0892B09F060E02C
:100A70008CE050C08BE00E94FD0661E0892B09F0FC
:100A800060E08BE047C089E00E94FD0661E0892BB1
:100A900009F060E089E03EC088E00E94FD0661E068
:100AA000892B09F060E088E035C087E00E94FD06F0
:100AB00061E0892B09F060E087E02CC08EE00E94A5
:100AC000FD0661E0892B09F060E08EE023C08FE035
:100AD0000E94FD0661E0892B09F060E08FE01AC0FA
:100AE00080E10E94FD0661E0892B09F060E080E171
:100AF00011C081E10E94FD0661E0892B09F060E0F0
:100B000081E108C08DE00E94FD0661E0892B09F0BB
:100B100060E08DE00E94DC092196CA30D10509F021
:100B200068CFDF91CF911F910F91FF90EF900895C3
:100B3000CF93DF93EC01862F688379835D834C83A9
:100B40000E94FD0621E030E0009711F420E030E043
:100B50003B832A83892B29F0CE01DF91CF910C941E
:100B6000ED04DF91CF910895EF92FF921F93CF9301
:100B7000DF93EC0188810E94FD0611E0892B09F4C6
:100B800010E0E12EF12C8A819B81E816F90629F00C
:100B9000CE010E94ED04FB82EA82812FDF91CF918A
:100BA0001F91FF90EF900895CF93DF93EB01DA014F
:100BB000FE897F89E88D56963C91569757962C91E1
:100BC000579758966C91F11125C0711123C041E0DF
:100BD000E11101C040E0311104C0211102C06623BF
:100BE00099F0442311F1432F50E04F0F511D5595BB
:100BF000479530E0270F311D3595279570E06E0F32
:100C0000711D7595679512C0EE2339F04F2F572F40
:100C10006E2F06C0332361F0E6CF40E050E060E085
:100C20000E943302DF91CF910895432F522FF8CFC6
:100C30002111D9CF6111D7CFE9CFFB01468957895F
:100C4000608D0C943302CF92DF92EF92CF93DF93BB
:100C5000EC01CB016901E42E0E94EF02882351F0E0
:100C60006E2DA601CE01DF91CF91EF90DF90CF9056
:100C70000C94330240E050E060E0CE010E94330269
:100C8000DF91CF91EF90DF90CF9008950F931F9356
:100C9000CF93DF93EC01CB018A010E94EF028823FE
:100CA00059F0F80146895789608DCE01DF91CF91C7
:100CB0001F910F910C94330240E050E060E0CE01B0
:100CC0000E943302DF91CF911F910F9108958330DD
:100CD00081F028F4813099F08230A1F008958730B6
:100CE000A9F08830B9F08430D1F4809180008F7DF4
:100CF00003C0809180008F7780938000089584B531
:100D00008F7702C084B58F7D84BD08958091B00037
:100D10008F7703C08091B0008F7D8093B0000895DD
:100D20005F926F927F928F929F92AF92BF92CF927B
:100D3000DF92EF92FF920F931F93CF93DF93FC010B
:100D40008090240490902504A0902604B09027045D
:100D5000C0902804D0902904F0902A04D0912B044C
:100D6000582C5022692C61227A2C7222CB2DC3235D
:100D7000BC2DB423AD2DA5239F2D96238D2F872326
:100D80000525162527253C274B275A27692778272D
:100D900003871487258736874787508B618B728B33
:100DA0000829009324041929109325042A29209343
:100DB00026043B29309327044C29409328045D29BD
:100DC000509329046F2960932A047D2B70932B0480
:100DD000E18E8CE192E092878187DF91CF911F9124
:100DE0000F91FF90EF90DF90CF90BF90AF909F90CA
:100DF0008F907F906F905F900895CF93DF93282F0F
:100E000030E0F901E255FF4F8491F901E656FF4FBA
:100E1000D491F901EA57FF4FC491CC2391F081118D
:100E20000E946706EC2FF0E0EE0FFF1FE458FF4F23
:100E3000A591B491EC91ED2381E090E021F480E064
:100E400002C080E090E0DF91CF910895CF92DF92D1
:100E5000EF92FF920F931F93CF93DF93CDB7DEB73F
:100E6000EA970FB6F894DEBF0FBECDBF0091BB016D
:100E7000002309F46DC06AE370E08BEB91E00E94FF
:100E8000680E002E000C110B005311090A301105D9
:100E900008F057C021E08C3B920709F052C0FC01DA
:100EA0003196E12CF12C41E050E02191222389F090
:100EB000022E000C330B205331092A303105A8F7DC
:100EC000CA0102C0880F991F2A95E2F7E82AF92A79
:100ED000ECCF26E0209FC001219F900D1124DC0162
:100EE000A45EBD4F6D0156968C910E94FD0621E0D7
:100EF00030E0009711F420E030E0F601318F208FD0
:100F0000892BA9F086E0809F6001819FD00C11247D
:100F100086010E5C1D4FC8010E94ED04F601E45EDF
:100F2000FD4FF38EE28EC8010E94ED040AC086E0F8
:100F3000809FF001819FF00D1124E45EFD4FF38E40
:100F4000E28E80E5EBEBF1E0DF011D928A95E9F797
:100F500082E392E00E94B40588E392E00E94B40527
:100F60008EE392E00E94B40584E492E00E94B4050E
:100F70008AE492E00E94B40582E00E94FD0621E02E
:100F8000892B09F420E020930B0283E00E94FD06E8
:100F900021E0892B09F420E020930C0284E00E94D8
:100FA000FD0621E0892B09F420E020930D0285E065
:100FB0000E94FD0621E0892B09F420E020930E0217
:100FC00086E00E94FD0621E0892B09F420E02093B1
:100FD0000F022AE030E040E060E470E080E592E05B
:100FE0000E9423062AE030E040E060E870E08AE6F4
:100FF00092E00E942306C0900601D0900701E09085
:1010000008014E2D960160E071E084E892E00E94B4
:10101000230620E030E04AE060E072E08EE992E0F2
:101020000E9423064E2D960160E270E088EB92E06C
:101030000E9423068AE1E4E8F2E0DE0111960190C5
:101040000D928A95E1F78AE1EAE6F2E0DE015B962D
:1010500001900D928A95E1F7AE014F5F5F4FBE019F
:10106000655E7F4F82ED92E00E94D4058AE1E2ED59
:10107000F2E0DE01119601900D928A95E1F7BE0132
:101080006F5F7F4F80EF93E00E941D068AE1E2EDE3
:10109000F2E0DE01119601900D928A95E1F7BE0112
:1010A0006F5F7F4F8AE094E00E941D068AE1E6EDC3
:1010B000F3E0DE01119601900D928A95E1F7AE0101
:1010C0004F5F5F4F68E070E08CEE92E00E94460652
:1010D0008AE1E8E8F3E0DE01119601900D928A952D
:1010E000E1F78AE1EEE9F2E0DE015B9601900D9214
:1010F0008A95E1F7AE014F5F5F4FBE01655E7F4F9E
:1011000086E093E00E94D4058AE1E6E0F3E0DE01A8
:10111000119601900D928A95E1F7BE016F5F7F4FA6
:101120008CEB93E00E941D068AE1E6E0F3E0DE012D
:10113000119601900D928A95E1F7BE016F5F7F4F86
:1011400086ED93E00E941D068AE1ECEEF2E0DE01FE
:10115000119601900D928A95E1F78AE1E0E5F2E0BF
:10116000DE015B9601900D928A95E1F7AE014F5F2B
:101170005F4FBE01655E7F4F80E293E00E94D40521
:101180008AE1E0EFF3E0DE01119601900D928A957D
:10119000E1F7AE014F5F5F4F62E070E08AE393E0FA
:1011A0000E9446068AE1ECEBF3E0DE011196019025
:1011B0000D928A95E1F7AE014F5F5F4F61E070E0FD
:1011C00084E593E00E9446068AE1E0E2F3E0DE0176
:1011D000119601900D928A95E1F7AE014F5F5F4F36
:1011E00064E070E08EE693E00E9446068AE1EAE061
:1011F000F4E0DE01119601900D928A95E1F7AE01BF
:101200004F5F5F4F60E170E088E893E00E94460620
:101210008AE1EEE6F3E0DE01119601900D928A95E7
:10122000E1F78AE1E8EBF2E0DE015B9601900D92D6
:101230008A95E1F7AE014F5F5F4FBE01655E7F4F5C
:1012400082EA93E00E94D4058091250290912602C3
:10125000892B09F4A2C00E94500300912B02109127
:101260002C0220912D0230912E02DC01CB01801B3B
:10127000910BA20BB30B8C329140A105B10558F331
:10128000F89480912002909121029A838983E091C1
:101290002502F0912602DF01119680818AAF90919C
:1012A0001C02E0912F02F0913002809131029923CB
:1012B00009F42EC09081982B99AF90818095892355
:1012C00088AF88AD8DAB88E08B8F59AD68AD4AADE6
:1012D0003B8D2DA989819A81508347FD252F3A9511
:1012E0002083262F39F0441F00C0000060830000D7
:1012F00000C0F2CF38E04D9160830000019761F7A4
:10130000F0933002E0932F024AAF3B8F2DAB38C0F1
:101310009081982B99AF90818095892388AF88AD73
:101320008FAB88E08EAB59AD68AD4AAD3EA92FA911
:1013300089819A81508347FD252F00C000C02083FA
:1013400000C000C000C000C000C060830000262FA5
:101350003A9541F0441F000000C000C000C000C02A
:1013600000C0E8CF38E04D9100C0608300C0019715
:1013700009F7F0933002E0932F024AAF3EAB2FAB58
:101380009A83898378940E94500360932B02709310
:101390002C0280932D0290932E02EA960FB6F894B9
:1013A000DEBF0FBECDBFDF91CF911F910F91FF9098
:1013B000EF90DF90CF9008951F93CF93DF93282F66
:1013C00030E0F901E255FF4F8491F901E656FF4FF5
:1013D000D491F901EA57FF4FC491CC23C1F0162FE5
:1013E00081110E946706EC2FF0E0EE0FFF1FEE5810
:1013F000FF4FA591B4919FB7F894111104C08C913F
:10140000D095D82302C0EC91DE2BDC939FBFDF91F7
:10141000CF911F91089580E592E0892B69F4809126
:101420002502909126020E94DA0D8091220290916D
:10143000230297FF09C0089580E090E04A978C321C
:101440002EEF9207D9F7EBCF60E00C948D007894E3
:1014500084B5826084BD84B5816084BD85B58260B9
:1014600085BD85B5816085BD80916E00816080936A
:101470006E001092810080918100826080938100D3
:1014800080918100816080938100809180008160E3
:10149000809380008091B10084608093B10080913E
:1014A000B00081608093B00080917A008460809366
:1014B0007A0080917A00826080937A0080917A002D
:1014C000816080937A0080917A00806880937A00AE
:1014D0001092C10080E5EBEBF1E0DF011D928A95EF
:1014E000E9F761E08CE00E948D0061E08BE00E94F2
:1014F0008D0061E089E00E948D0061E088E00E943B
:101500008D0061E087E00E948D0061E08EE00E9426
:101510008D0061E08FE00E948D0061E080E10E941B
:101520008D0061E081E10E948D0061E08DE00E940C
:101530008D0061E08CE00E94DC0961E08BE00E949C
:10154000DC0961E089E00E94DC0961E088E00E943A
:10155000DC0961E087E00E94DC0961E08EE00E9426
:10156000DC0961E08FE00E94DC0961E080E10E941B
:10157000DC0961E081E10E94DC0961E08DE00E940C
:10158000DC0962E082E00E948D0062E083E00E945C
:101590008D0062E084E00E948D0062E085E00E94A0
:1015A0008D0062E086E00E948D008FE990E00E944D
:1015B000420D009729F02FE930E045E350E004C0E8
:1015C00020E030E040E050E0E0E9F0E0E491F0E0DD
:1015D000EE0FFF1FEE58FF4FA591B491E4EAF0E043
:1015E000E49161E060931C0210921D0250931F026F
:1015F00040931E0230932102209320022AE030E023
:101600003093230220932202109224029093260208
:1016100080932502609327021092280222E02093F3
:10162000290260932A0210922B0210922C0210922F
:101630002D0210922E02B0933002A0932F02E0935D
:1016400031020E94DA0D60E08AE00E948D008091F4
:1016500022029091230297FD08C061E00E948D0054
:1016600060E0809122020E94DC0981E080931D02EB
:10167000C0E0D0E080911E0290911F02C817D907E8
:1016800040F420E030E0A901BE018CE192E00E942C
:10169000C4012196C533D10569F7EE24E39400E037
:1016A00010E020E03EE140E050E060E070E080E5E6
:1016B00092E00E949006E12C20E030EE40E050E005
:1016C00060E070E08AE692E00E949006EE24E394E7
:1016D00020E030E044E050E060E070E084E892E038
:1016E0000E949006E12C20E030E048E350E060E00A
:1016F00070E08EE992E00E949006EE24E39428EFD9
:1017000031E040E050E060E070E088EB92E00E9461
:101710009006E12C20E030E043E050E160E070E032
:1017200082ED92E00E94900620E030E040E050EE32
:1017300061E070E080EF93E00E94900620E030E0EE
:1017400040E05CE060E070E08AE094E00E94900697
:10175000EE24E39418E020E030E040E050E060E068
:1017600070E08CEE92E00E94900600E410E020E031
:1017700030E040EC51E060E070E086E093E00E94F1
:10178000900600E320E030E040E050E060E070E0F0
:101790008CEB93E00E949006E12C00E817E020E03B
:1017A00030E040E050E060E070E086ED93E00E94C1
:1017B000900600E010EF20E030E040E050E060E014
:1017C00070E080E293E00E94900610E020E030E0BC
:1017D00040E050E06EE170E08AE393E00E94900602
:1017E000EE24E3940FE020E030E040E050E060E0E1
:1017F00070E084E593E00E94900600E021E030E094
:1018000040E050E060E070E08EE693E00E949006D9
:1018100020E030E040E052E060E070E088E893E0F3
:101820000E94900626E030E040E050E060E070E08A
:1018300082EA93E00E94900647E050E062E070E0A8
:1018400082E392E00E9498054CE050E063E070E093
:1018500088E392E00E94980540E350E064E070E085
:101860008EE392E00E94980540EC50E065E070E065
:1018700084E492E00E94980540E053E066E070E066
:101880008AE492E00E9498051092B1011092B00192
:101890001092AF011092AE011092AD0181E08093E1
:1018A000AC011092AB0161E082E10E94DC0961E0D1
:1018B00083E10E94DC098091B9008E7F8093B9009A
:1018C0008091B9008D7F8093B90088E48093B8003F
:1018D00085E48093BC0089EC90E09093AA0180930A
:1018E000A90185ED90E09093A8018093A70188E875
:1018F0008093BA008AE293E09093A6018093A501B9
:1019000083EA91E09093A4018093A301C0E0D0E02A
:101910000E9426072097E1F30E940000F9CF109261
:1019200013021092120288EE93E0A0E0B0E08093E0
:10193000140290931502A0931602B09317028DE043
:1019400091E0909311028093100281E080931C0239
:1019500010921D0210921F0210921E02109221027C
:10196000109220022FEF3FEF3093230220932202A8
:1019700010922402109226021092250280932702D0
:101980001092280292E09093290280932A021092EA
:101990002B0210922C0210922D0210922E02109205
:1019A00035021092340210923702109236021092D1
:1019B0003B0210923A0210923D0210923C021092A9
:1019C0004102109240021092430210924202109281
:1019D0004702109246021092490210924802109259
:1019E0004D0210924C0210924F0210924E02E0E50E
:1019F000F2E0108211821282138214821582168202
:101A000017821086118E7A9684E0E432F80789F7FF
:101A1000089597FB10F8169400080F93083098F07B
:101A20000850232F342F452F562F672F782F892FBB
:101A3000902DF4CF05949795879577956795579551
:101A40004795379527950A95AAF70F9108952A1972
:101A50003B094C095D096E097F09800B910B0895C4
:101A60000024A7FD00942A173005400550056005A5
:101A70007005800590050895EE0FFF1F0590F49105
:101A8000E02D09940F931F93CF93DF93823091053C
:101A900010F482E090E0E0912E04F0912F0420E019
:101AA00030E0A0E0B0E0309719F14081518102812F
:101AB000138148175907C8F08417950769F41097E0
:101AC00031F012960C93129713961C9327C0009333
:101AD0002E0410932F0422C02115310519F042174E
:101AE000530718F49A01BD01EF01DF01F801DBCFC4
:101AF00021153105F9F0281B390B2430310580F40C
:101B00008A819B816115710521F0FB01938382839A
:101B100004C090932F0480932E04FE01329644C09B
:101B2000FE01E20FF31F8193919322503109398313
:101B300028833AC020912C0430912D04232B41F4AA
:101B4000209102013091030130932D0420932C0445
:101B500020910001309101012115310541F42DB78B
:101B60003EB74091040150910501241B350BE091D3
:101B70002C04F0912D04E217F307A0F42E1B3F0B69
:101B80002817390778F0AC014E5F5F4F24173507EF
:101B900048F04E0F5F1F50932D0440932C04819307
:101BA000919302C0E0E0F0E0CF01DF91CF911F916F
:101BB0000F910895CF93DF93009709F481C0FC0142
:101BC000329713821282A0912E04B0912F041097A5
:101BD00081F420813181820F931F20912C04309158
:101BE0002D042817390751F5F0932D04E0932C04A8
:101BF00067C0ED0120E030E0CE17DF0740F44A81F6
:101C00005B819E0141155105F1F0EA01F5CFD383C7
:101C1000C28340815181840F951FC817D90759F499
:101C200088819981840F951F0296918380838A8190
:101C30009B81938382832115310529F4F0932F042E
:101C4000E0932E043DC0E901FB83EA834991599159
:101C5000C40FD51FEC17FD0761F480819181840FBB
:101C6000951F0296E90199838883828193819B83E2
:101C70008A83E0E0F0E012968D919C911397009793
:101C800019F0FD01DC01F7CF8D919C9111979D0119
:101C90002E5F3F4F820F931F20912C0430912D0413
:101CA0002817390769F4309729F410922F041092FD
:101CB0002E0402C013821282B0932D04A0932C0430
:101CC000DF91CF91089581E090E0F8940C94830E19
:101CD000FC018191861721F08823D9F7992708956F
:101CE0003197CF010895FB01DC010D900020E9F749
:101CF00011974150504028F0019000200D92C9F7F3
:101D000008951C92089510E0C2E6D0E004C0FE01E0
:101D10000E943C0D2196C336D107C9F7F894FFCF36
:101D20000000300420000A03000000000092018738
:0C1D300001C1015B017F016B015C01003F
:00000001FF
